{
  "contractName": "AmbsStore",
  "abi": [
    {
      "inputs": [
        {
          "internalType": "address[]",
          "name": "_initAdmins",
          "type": "address[]"
        }
      ],
      "stateMutability": "nonpayable",
      "type": "constructor"
    },
    {
      "anonymous": false,
      "inputs": [
        {
          "indexed": false,
          "internalType": "address",
          "name": "_address",
          "type": "address"
        }
      ],
      "name": "AdminAdded",
      "type": "event"
    },
    {
      "anonymous": false,
      "inputs": [
        {
          "indexed": false,
          "internalType": "address",
          "name": "_address",
          "type": "address"
        }
      ],
      "name": "AdminRemoved",
      "type": "event"
    },
    {
      "anonymous": false,
      "inputs": [
        {
          "indexed": false,
          "internalType": "address",
          "name": "receiver",
          "type": "address"
        },
        {
          "indexed": false,
          "internalType": "uint256",
          "name": "qty",
          "type": "uint256"
        }
      ],
      "name": "AmbsBought",
      "type": "event"
    },
    {
      "anonymous": false,
      "inputs": [
        {
          "indexed": false,
          "internalType": "address",
          "name": "_oldSuperAdmin",
          "type": "address"
        },
        {
          "indexed": false,
          "internalType": "address",
          "name": "_newSuperAdmin",
          "type": "address"
        }
      ],
      "name": "SuperAdminChanged",
      "type": "event"
    },
    {
      "inputs": [],
      "name": "_revenueAddress1",
      "outputs": [
        {
          "internalType": "address",
          "name": "",
          "type": "address"
        }
      ],
      "stateMutability": "view",
      "type": "function",
      "constant": true
    },
    {
      "inputs": [],
      "name": "_revenueAddress2",
      "outputs": [
        {
          "internalType": "address",
          "name": "",
          "type": "address"
        }
      ],
      "stateMutability": "view",
      "type": "function",
      "constant": true
    },
    {
      "inputs": [],
      "name": "_revenueAddress3",
      "outputs": [
        {
          "internalType": "address",
          "name": "",
          "type": "address"
        }
      ],
      "stateMutability": "view",
      "type": "function",
      "constant": true
    },
    {
      "inputs": [],
      "name": "_revenueRate1",
      "outputs": [
        {
          "internalType": "uint256",
          "name": "",
          "type": "uint256"
        }
      ],
      "stateMutability": "view",
      "type": "function",
      "constant": true
    },
    {
      "inputs": [],
      "name": "_revenueRate2",
      "outputs": [
        {
          "internalType": "uint256",
          "name": "",
          "type": "uint256"
        }
      ],
      "stateMutability": "view",
      "type": "function",
      "constant": true
    },
    {
      "inputs": [],
      "name": "_revenueRate3",
      "outputs": [
        {
          "internalType": "uint256",
          "name": "",
          "type": "uint256"
        }
      ],
      "stateMutability": "view",
      "type": "function",
      "constant": true
    },
    {
      "inputs": [
        {
          "internalType": "address",
          "name": "_address",
          "type": "address"
        }
      ],
      "name": "addAdmin",
      "outputs": [],
      "stateMutability": "nonpayable",
      "type": "function"
    },
    {
      "inputs": [],
      "name": "ambrosiaTokenAddress",
      "outputs": [
        {
          "internalType": "address",
          "name": "",
          "type": "address"
        }
      ],
      "stateMutability": "view",
      "type": "function",
      "constant": true
    },
    {
      "inputs": [],
      "name": "ambsPrice",
      "outputs": [
        {
          "internalType": "uint256",
          "name": "",
          "type": "uint256"
        }
      ],
      "stateMutability": "view",
      "type": "function",
      "constant": true
    },
    {
      "inputs": [],
      "name": "claimRevenue",
      "outputs": [],
      "stateMutability": "payable",
      "type": "function",
      "payable": true
    },
    {
      "inputs": [
        {
          "internalType": "address",
          "name": "_address",
          "type": "address"
        }
      ],
      "name": "isAdmin",
      "outputs": [
        {
          "internalType": "bool",
          "name": "",
          "type": "bool"
        }
      ],
      "stateMutability": "view",
      "type": "function",
      "constant": true
    },
    {
      "inputs": [
        {
          "internalType": "address",
          "name": "_address",
          "type": "address"
        }
      ],
      "name": "removeAdmin",
      "outputs": [],
      "stateMutability": "nonpayable",
      "type": "function"
    },
    {
      "inputs": [
        {
          "internalType": "address",
          "name": "address1",
          "type": "address"
        },
        {
          "internalType": "address",
          "name": "address2",
          "type": "address"
        },
        {
          "internalType": "address",
          "name": "address3",
          "type": "address"
        }
      ],
      "name": "setRevenueAddresses",
      "outputs": [],
      "stateMutability": "nonpayable",
      "type": "function"
    },
    {
      "inputs": [
        {
          "internalType": "uint256",
          "name": "rate1",
          "type": "uint256"
        },
        {
          "internalType": "uint256",
          "name": "rate2",
          "type": "uint256"
        },
        {
          "internalType": "uint256",
          "name": "rate3",
          "type": "uint256"
        }
      ],
      "name": "setRevenueRate",
      "outputs": [],
      "stateMutability": "nonpayable",
      "type": "function"
    },
    {
      "inputs": [],
      "name": "superAdmin",
      "outputs": [
        {
          "internalType": "address",
          "name": "",
          "type": "address"
        }
      ],
      "stateMutability": "view",
      "type": "function",
      "constant": true
    },
    {
      "inputs": [],
      "name": "totalAmbsSold",
      "outputs": [
        {
          "internalType": "uint256",
          "name": "",
          "type": "uint256"
        }
      ],
      "stateMutability": "view",
      "type": "function",
      "constant": true
    },
    {
      "inputs": [
        {
          "internalType": "address",
          "name": "_address",
          "type": "address"
        }
      ],
      "name": "updateSuperAdmin",
      "outputs": [],
      "stateMutability": "nonpayable",
      "type": "function"
    },
    {
      "inputs": [
        {
          "internalType": "address",
          "name": "receiver",
          "type": "address"
        },
        {
          "internalType": "uint256",
          "name": "qty",
          "type": "uint256"
        }
      ],
      "name": "buyAmbs",
      "outputs": [],
      "stateMutability": "payable",
      "type": "function",
      "payable": true
    },
    {
      "inputs": [
        {
          "internalType": "address",
          "name": "receiver",
          "type": "address"
        },
        {
          "internalType": "uint256",
          "name": "qty",
          "type": "uint256"
        }
      ],
      "name": "exchangeFromAmbrosiaToken",
      "outputs": [],
      "stateMutability": "payable",
      "type": "function",
      "payable": true
    },
    {
      "inputs": [
        {
          "internalType": "uint256",
          "name": "newPrice",
          "type": "uint256"
        }
      ],
      "name": "setAmbsPrice",
      "outputs": [],
      "stateMutability": "nonpayable",
      "type": "function"
    },
    {
      "inputs": [
        {
          "internalType": "address",
          "name": "_ambrosiaTokenAddress",
          "type": "address"
        }
      ],
      "name": "setAmbrosiaTokenAddress",
      "outputs": [],
      "stateMutability": "nonpayable",
      "type": "function"
    }
  ],
  "bytecode": "0x608060405273b6707a7bb8e83739551ba67846dc8eb9386d6a666000806101000a81548173ffffffffffffffffffffffffffffffffffffffff021916908373ffffffffffffffffffffffffffffffffffffffff16021790555073b6707a7bb8e83739551ba67846dc8eb9386d6a66600160006101000a81548173ffffffffffffffffffffffffffffffffffffffff021916908373ffffffffffffffffffffffffffffffffffffffff16021790555073b6707a7bb8e83739551ba67846dc8eb9386d6a66600260006101000a81548173ffffffffffffffffffffffffffffffffffffffff021916908373ffffffffffffffffffffffffffffffffffffffff1602179055506103e86003556107d0600455611b58600555680107ad8f556c6c000060085560006009553480156200013357600080fd5b506040516200217e3803806200217e833981810160405281019062000159919062000443565b807314b41103371d7990659ec430c2a6f31f61a18420600660006101000a81548173ffffffffffffffffffffffffffffffffffffffff021916908373ffffffffffffffffffffffffffffffffffffffff16021790555060008151905060005b81811015620002295762000213838281518110620001ff577f4e487b7100000000000000000000000000000000000000000000000000000000600052603260045260246000fd5b60200260200101516200026660201b60201c565b80806200022090620005cc565b915050620001b8565b506200025d600660009054906101000a900473ffffffffffffffffffffffffffffffffffffffff166200026660201b60201c565b50505062000692565b600760008273ffffffffffffffffffffffffffffffffffffffff1673ffffffffffffffffffffffffffffffffffffffff16815260200190815260200160002060009054906101000a900460ff1615620002f6576040517f08c379a0000000000000000000000000000000000000000000000000000000008152600401620002ed90620004f8565b60405180910390fd5b6001600760008373ffffffffffffffffffffffffffffffffffffffff1673ffffffffffffffffffffffffffffffffffffffff16815260200190815260200160002060006101000a81548160ff0219169083151502179055507f44d6d25963f097ad14f29f06854a01f575648a1ef82f30e562ccd3889717e339816040516200037f9190620004db565b60405180910390a150565b6000620003a16200039b846200054e565b6200051a565b90508083825260208201905082856020860282011115620003c157600080fd5b60005b85811015620003f55781620003da8882620003ff565b845260208401935060208301925050600181019050620003c4565b5050509392505050565b600081519050620004108162000678565b92915050565b600082601f8301126200042857600080fd5b81516200043a8482602086016200038a565b91505092915050565b6000602082840312156200045657600080fd5b600082015167ffffffffffffffff8111156200047157600080fd5b6200047f8482850162000416565b91505092915050565b62000493816200058e565b82525050565b6000620004a86010836200057d565b91507f69732061646d696e20616c7265616479000000000000000000000000000000006000830152602082019050919050565b6000602082019050620004f2600083018462000488565b92915050565b60006020820190508181036000830152620005138162000499565b9050919050565b6000604051905081810181811067ffffffffffffffff8211171562000544576200054362000649565b5b8060405250919050565b600067ffffffffffffffff8211156200056c576200056b62000649565b5b602082029050602081019050919050565b600082825260208201905092915050565b60006200059b82620005a2565b9050919050565b600073ffffffffffffffffffffffffffffffffffffffff82169050919050565b6000819050919050565b6000620005d982620005c2565b91507fffffffffffffffffffffffffffffffffffffffffffffffffffffffffffffffff8214156200060f576200060e6200061a565b5b600182019050919050565b7f4e487b7100000000000000000000000000000000000000000000000000000000600052601160045260246000fd5b7f4e487b7100000000000000000000000000000000000000000000000000000000600052604160045260246000fd5b62000683816200058e565b81146200068f57600080fd5b50565b611adc80620006a26000396000f3fe6080604052600436106101295760003560e01c806362e046cc116100ab578063cae43fd81161006f578063cae43fd81461037c578063d1f9e22c146103a5578063d2a486df146103d0578063d644fda7146103fb578063d8b3648714610424578063f2f587eb1461044f57610129565b806362e046cc146102ad57806370480275146102d657806373932819146102ff57806382f14d3214610328578063aa2fc2731461035357610129565b806331b101a0116100f257806331b101a01461021557806340f4f48314610231578063560a3a361461025c578063564f4f76146102785780635ae853f61461028257610129565b806285c1331461012e578063126a021f146101595780631785f53c1461018457806324d7806c146101ad57806329575f6a146101ea575b600080fd5b34801561013a57600080fd5b5061014361047a565b6040516101509190611891565b60405180910390f35b34801561016557600080fd5b5061016e610480565b60405161017b9190611891565b60405180910390f35b34801561019057600080fd5b506101ab60048036038101906101a691906113e7565b610486565b005b3480156101b957600080fd5b506101d460048036038101906101cf91906113e7565b610524565b6040516101e19190611796565b60405180910390f35b3480156101f657600080fd5b506101ff61057a565b60405161020c9190611729565b60405180910390f35b61022f600480360381019061022a919061145f565b6105a4565b005b34801561023d57600080fd5b5061024661077c565b6040516102539190611891565b60405180910390f35b6102766004803603810190610271919061145f565b610782565b005b6102806108a1565b005b34801561028e57600080fd5b50610297610939565b6040516102a49190611729565b60405180910390f35b3480156102b957600080fd5b506102d460048036038101906102cf91906113e7565b61095f565b005b3480156102e257600080fd5b506102fd60048036038101906102f891906113e7565b610a31565b005b34801561030b57600080fd5b50610326600480360381019061032191906114ed565b610acf565b005b34801561033457600080fd5b5061033d610b77565b60405161034a9190611891565b60405180910390f35b34801561035f57600080fd5b5061037a6004803603810190610375919061149b565b610b7d565b005b34801561038857600080fd5b506103a3600480360381019061039e91906113e7565b610c15565b005b3480156103b157600080fd5b506103ba610dd7565b6040516103c79190611729565b60405180910390f35b3480156103dc57600080fd5b506103e5610dfd565b6040516103f29190611729565b60405180910390f35b34801561040757600080fd5b50610422600480360381019061041d9190611410565b610e23565b005b34801561043057600080fd5b50610439610f78565b6040516104469190611891565b60405180910390f35b34801561045b57600080fd5b50610464610f7e565b6040516104719190611729565b60405180910390f35b60045481565b60095481565b33600660009054906101000a900473ffffffffffffffffffffffffffffffffffffffff1673ffffffffffffffffffffffffffffffffffffffff168173ffffffffffffffffffffffffffffffffffffffff1614610517576040517f08c379a000000000000000000000000000000000000000000000000000000000815260040161050e90611851565b60405180910390fd5b61052082610fa2565b5050565b6000600760008373ffffffffffffffffffffffffffffffffffffffff1673ffffffffffffffffffffffffffffffffffffffff16815260200190815260200160002060009054906101000a900460ff169050919050565b6000600660009054906101000a900473ffffffffffffffffffffffffffffffffffffffff16905090565b6000600a60009054906101000a900473ffffffffffffffffffffffffffffffffffffffff1673ffffffffffffffffffffffffffffffffffffffff166370a08231336040518263ffffffff1660e01b81526004016106019190611729565b60206040518083038186803b15801561061957600080fd5b505afa15801561062d573d6000803e3d6000fd5b505050506040513d601f19601f8201168201806040525081019061065191906114c4565b90506000670de0b6b3a7640000836106699190611944565b9050808210156106ae576040517f08c379a00000000000000000000000000000000000000000000000000000000081526004016106a5906117b1565b60405180910390fd5b600a60009054906101000a900473ffffffffffffffffffffffffffffffffffffffff1673ffffffffffffffffffffffffffffffffffffffff1663c8b2015233836040518363ffffffff1660e01b815260040161070b92919061176d565b600060405180830381600087803b15801561072557600080fd5b505af1158015610739573d6000803e3d6000fd5b505050507f5354f7b308453dfe6c2c7370cae1c57946571b6c3a3a91f3f2580c171e199935848460405161076e92919061176d565b60405180910390a150505050565b60055481565b6000610799600854836110c090919063ffffffff16565b9050803410156107de576040517f08c379a00000000000000000000000000000000000000000000000000000000081526004016107d590611871565b60405180910390fd5b60006107f382346110d690919063ffffffff16565b90506000811115610846573373ffffffffffffffffffffffffffffffffffffffff166108fc829081150290604051600060405180830381858888f19350505050158015610844573d6000803e3d6000fd5b505b8260095461085491906118bd565b6009819055507f5354f7b308453dfe6c2c7370cae1c57946571b6c3a3a91f3f2580c171e199935848460405161088b92919061176d565b60405180910390a161089b6110ec565b50505050565b33600760008273ffffffffffffffffffffffffffffffffffffffff1673ffffffffffffffffffffffffffffffffffffffff16815260200190815260200160002060009054906101000a900460ff1661092e576040517f08c379a000000000000000000000000000000000000000000000000000000000815260040161092590611811565b60405180910390fd5b6109366110ec565b50565b600160009054906101000a900473ffffffffffffffffffffffffffffffffffffffff1681565b33600760008273ffffffffffffffffffffffffffffffffffffffff1673ffffffffffffffffffffffffffffffffffffffff16815260200190815260200160002060009054906101000a900460ff166109ec576040517f08c379a00000000000000000000000000000000000000000000000000000000081526004016109e390611811565b60405180910390fd5b81600a60006101000a81548173ffffffffffffffffffffffffffffffffffffffff021916908373ffffffffffffffffffffffffffffffffffffffff1602179055505050565b33600660009054906101000a900473ffffffffffffffffffffffffffffffffffffffff1673ffffffffffffffffffffffffffffffffffffffff168173ffffffffffffffffffffffffffffffffffffffff1614610ac2576040517f08c379a0000000000000000000000000000000000000000000000000000000008152600401610ab990611851565b60405180910390fd5b610acb82611289565b5050565b33600760008273ffffffffffffffffffffffffffffffffffffffff1673ffffffffffffffffffffffffffffffffffffffff16815260200190815260200160002060009054906101000a900460ff16610b5c576040517f08c379a0000000000000000000000000000000000000000000000000000000008152600401610b5390611811565b60405180910390fd5b83600381905550826004819055508160058190555050505050565b60085481565b33600760008273ffffffffffffffffffffffffffffffffffffffff1673ffffffffffffffffffffffffffffffffffffffff16815260200190815260200160002060009054906101000a900460ff16610c0a576040517f08c379a0000000000000000000000000000000000000000000000000000000008152600401610c0190611811565b60405180910390fd5b816008819055505050565b33600660009054906101000a900473ffffffffffffffffffffffffffffffffffffffff1673ffffffffffffffffffffffffffffffffffffffff168173ffffffffffffffffffffffffffffffffffffffff1614610ca6576040517f08c379a0000000000000000000000000000000000000000000000000000000008152600401610c9d90611851565b60405180910390fd5b600660009054906101000a900473ffffffffffffffffffffffffffffffffffffffff1673ffffffffffffffffffffffffffffffffffffffff168273ffffffffffffffffffffffffffffffffffffffff161415610d37576040517f08c379a0000000000000000000000000000000000000000000000000000000008152600401610d2e90611831565b60405180910390fd5b7f6a7fb6694616d75391385b86c21a1cc2628072753f9c7da9731e7b1b083a55e4600660009054906101000a900473ffffffffffffffffffffffffffffffffffffffff1683604051610d8a929190611744565b60405180910390a181600660006101000a81548173ffffffffffffffffffffffffffffffffffffffff021916908373ffffffffffffffffffffffffffffffffffffffff1602179055505050565b600260009054906101000a900473ffffffffffffffffffffffffffffffffffffffff1681565b600a60009054906101000a900473ffffffffffffffffffffffffffffffffffffffff1681565b33600760008273ffffffffffffffffffffffffffffffffffffffff1673ffffffffffffffffffffffffffffffffffffffff16815260200190815260200160002060009054906101000a900460ff16610eb0576040517f08c379a0000000000000000000000000000000000000000000000000000000008152600401610ea790611811565b60405180910390fd5b836000806101000a81548173ffffffffffffffffffffffffffffffffffffffff021916908373ffffffffffffffffffffffffffffffffffffffff16021790555082600160006101000a81548173ffffffffffffffffffffffffffffffffffffffff021916908373ffffffffffffffffffffffffffffffffffffffff16021790555081600260006101000a81548173ffffffffffffffffffffffffffffffffffffffff021916908373ffffffffffffffffffffffffffffffffffffffff16021790555050505050565b60035481565b60008054906101000a900473ffffffffffffffffffffffffffffffffffffffff1681565b600760008273ffffffffffffffffffffffffffffffffffffffff1673ffffffffffffffffffffffffffffffffffffffff16815260200190815260200160002060009054906101000a900460ff1661102e576040517f08c379a0000000000000000000000000000000000000000000000000000000008152600401611025906117d1565b60405180910390fd5b6000600760008373ffffffffffffffffffffffffffffffffffffffff1673ffffffffffffffffffffffffffffffffffffffff16815260200190815260200160002060006101000a81548160ff0219169083151502179055507fa3b62bc36326052d97ea62d63c3d60308ed4c3ea8ac079dd8499f1e9c4f80c0f816040516110b59190611729565b60405180910390a150565b600081836110ce9190611944565b905092915050565b600081836110e4919061199e565b905092915050565b60004790506000612710600354836111049190611944565b61110e9190611913565b90506000612710600454846111239190611944565b61112d9190611913565b90506000818361113d91906118bd565b84611148919061199e565b905060008054906101000a900473ffffffffffffffffffffffffffffffffffffffff1673ffffffffffffffffffffffffffffffffffffffff166108fc849081150290604051600060405180830381858888f193505050501580156111b0573d6000803e3d6000fd5b50600160009054906101000a900473ffffffffffffffffffffffffffffffffffffffff1673ffffffffffffffffffffffffffffffffffffffff166108fc839081150290604051600060405180830381858888f19350505050158015611219573d6000803e3d6000fd5b50600260009054906101000a900473ffffffffffffffffffffffffffffffffffffffff1673ffffffffffffffffffffffffffffffffffffffff166108fc829081150290604051600060405180830381858888f19350505050158015611282573d6000803e3d6000fd5b5050505050565b600760008273ffffffffffffffffffffffffffffffffffffffff1673ffffffffffffffffffffffffffffffffffffffff16815260200190815260200160002060009054906101000a900460ff1615611316576040517f08c379a000000000000000000000000000000000000000000000000000000000815260040161130d906117f1565b60405180910390fd5b6001600760008373ffffffffffffffffffffffffffffffffffffffff1673ffffffffffffffffffffffffffffffffffffffff16815260200190815260200160002060006101000a81548160ff0219169083151502179055507f44d6d25963f097ad14f29f06854a01f575648a1ef82f30e562ccd3889717e3398160405161139d9190611729565b60405180910390a150565b6000813590506113b781611a78565b92915050565b6000813590506113cc81611a8f565b92915050565b6000815190506113e181611a8f565b92915050565b6000602082840312156113f957600080fd5b6000611407848285016113a8565b91505092915050565b60008060006060848603121561142557600080fd5b6000611433868287016113a8565b9350506020611444868287016113a8565b9250506040611455868287016113a8565b9150509250925092565b6000806040838503121561147257600080fd5b6000611480858286016113a8565b9250506020611491858286016113bd565b9150509250929050565b6000602082840312156114ad57600080fd5b60006114bb848285016113bd565b91505092915050565b6000602082840312156114d657600080fd5b60006114e4848285016113d2565b91505092915050565b60008060006060848603121561150257600080fd5b6000611510868287016113bd565b9350506020611521868287016113bd565b9250506040611532868287016113bd565b9150509250925092565b611545816119d2565b82525050565b611554816119e4565b82525050565b60006115676013836118ac565b91507f696e73756666696369656e742066756e647321000000000000000000000000006000830152602082019050919050565b60006115a7600c836118ac565b91507f6973206e6f742061646d696e00000000000000000000000000000000000000006000830152602082019050919050565b60006115e76010836118ac565b91507f69732061646d696e20616c7265616479000000000000000000000000000000006000830152602082019050919050565b6000611627600d836118ac565b91507f6973206e6f742061646d696e21000000000000000000000000000000000000006000830152602082019050919050565b60006116676012836118ac565b91507f616c726561647920737570657241646d696e00000000000000000000000000006000830152602082019050919050565b60006116a76013836118ac565b91507f6973206e6f742073757065722061646d696e21000000000000000000000000006000830152602082019050919050565b60006116e76010836118ac565b91507f6e6f7420656e6f7567682076616c7565000000000000000000000000000000006000830152602082019050919050565b61172381611a10565b82525050565b600060208201905061173e600083018461153c565b92915050565b6000604082019050611759600083018561153c565b611766602083018461153c565b9392505050565b6000604082019050611782600083018561153c565b61178f602083018461171a565b9392505050565b60006020820190506117ab600083018461154b565b92915050565b600060208201905081810360008301526117ca8161155a565b9050919050565b600060208201905081810360008301526117ea8161159a565b9050919050565b6000602082019050818103600083015261180a816115da565b9050919050565b6000602082019050818103600083015261182a8161161a565b9050919050565b6000602082019050818103600083015261184a8161165a565b9050919050565b6000602082019050818103600083015261186a8161169a565b9050919050565b6000602082019050818103600083015261188a816116da565b9050919050565b60006020820190506118a6600083018461171a565b92915050565b600082825260208201905092915050565b60006118c882611a10565b91506118d383611a10565b9250827fffffffffffffffffffffffffffffffffffffffffffffffffffffffffffffffff0382111561190857611907611a1a565b5b828201905092915050565b600061191e82611a10565b915061192983611a10565b92508261193957611938611a49565b5b828204905092915050565b600061194f82611a10565b915061195a83611a10565b9250817fffffffffffffffffffffffffffffffffffffffffffffffffffffffffffffffff048311821515161561199357611992611a1a565b5b828202905092915050565b60006119a982611a10565b91506119b483611a10565b9250828210156119c7576119c6611a1a565b5b828203905092915050565b60006119dd826119f0565b9050919050565b60008115159050919050565b600073ffffffffffffffffffffffffffffffffffffffff82169050919050565b6000819050919050565b7f4e487b7100000000000000000000000000000000000000000000000000000000600052601160045260246000fd5b7f4e487b7100000000000000000000000000000000000000000000000000000000600052601260045260246000fd5b611a81816119d2565b8114611a8c57600080fd5b50565b611a9881611a10565b8114611aa357600080fd5b5056fea2646970667358221220bbf3523f7ddfcd08f9c89325d194045af7bd9c938b7c4b9337c3f8589538331864736f6c63430008000033",
  "immutableReferences": {},
  "source": "pragma solidity ^0.8.0;\nimport \"./Admin.sol\";\nimport \"./utils/math/SafeMath.sol\";\n\ninterface AmbsToken {\n    function balanceOf(address account) external view returns (uint256);\n\n    function transferFrom(\n        address sender,\n        address recipient,\n        uint256 amount\n    ) external returns (bool);\n\n    function forcedBurn(address account, uint256 amount) external;\n}\n\ncontract AmbsStore is Admin {\n    using SafeMath for uint256;\n    uint256 public ambsPrice = 19 ether;\n    uint256 public totalAmbsSold = 0;\n\n    address public ambrosiaTokenAddress;\n\n    event AmbsBought(address receiver, uint256 qty);\n\n    constructor(address[] memory _initAdmins) public Admin(_initAdmins) {}\n\n    function buyAmbs(address receiver, uint256 qty) public payable {\n        uint256 price = qty.mul(ambsPrice);\n        require(msg.value >= price, \"not enough value\");\n\n        uint256 payback = uint256(msg.value).sub(price);\n        if (payback > 0) {\n            payable(msg.sender).transfer(payback);\n        }\n\n        totalAmbsSold = totalAmbsSold + qty;\n\n        emit AmbsBought(receiver, qty);\n        _claimRevenue();\n    }\n\n    function exchangeFromAmbrosiaToken(address receiver, uint256 qty)\n        public\n        payable\n    {\n        uint256 balance = AmbsToken(ambrosiaTokenAddress).balanceOf(msg.sender);\n        uint256 price = qty * 10**18;\n        require(balance >= price, \"insufficient funds!\");\n\n        AmbsToken(ambrosiaTokenAddress).forcedBurn(msg.sender, price);\n\n        emit AmbsBought(receiver, qty);\n    }\n\n    function setAmbsPrice(uint256 newPrice) public onlyAdmin(msg.sender) {\n        ambsPrice = newPrice;\n    }\n\n    function setAmbrosiaTokenAddress(address _ambrosiaTokenAddress)\n        public\n        onlyAdmin(msg.sender)\n    {\n        ambrosiaTokenAddress = _ambrosiaTokenAddress;\n    }\n}\n",
  "sourcePath": "/Users/tybq/working/learn/binemo-nft/contracts/AmbsStore.sol",
  "compiler": {
    "name": "solc",
    "version": "0.8.0+commit.c7dfd78e.Emscripten.clang"
  },
  "schemaVersion": "3.4.1",
  "updatedAt": "2021-07-05T14:14:36.105Z",
  "networkType": "ethereum",
  "devdoc": {
    "kind": "dev",
    "methods": {},
    "version": 1
  },
  "userdoc": {
    "kind": "user",
    "methods": {},
    "version": 1
  }
}