{
  "contractName": "BinemoStore",
  "abi": [
    {
      "inputs": [
        {
          "internalType": "address[]",
          "name": "_initAdmins",
          "type": "address[]"
        },
        {
          "internalType": "address",
          "name": "_binemonTokenAddress",
          "type": "address"
        }
      ],
      "stateMutability": "nonpayable",
      "type": "constructor"
    },
    {
      "anonymous": false,
      "inputs": [
        {
          "indexed": false,
          "internalType": "address",
          "name": "_address",
          "type": "address"
        }
      ],
      "name": "AdminAdded",
      "type": "event"
    },
    {
      "anonymous": false,
      "inputs": [
        {
          "indexed": false,
          "internalType": "address",
          "name": "_address",
          "type": "address"
        }
      ],
      "name": "AdminRemoved",
      "type": "event"
    },
    {
      "anonymous": false,
      "inputs": [
        {
          "indexed": false,
          "internalType": "string",
          "name": "breedId",
          "type": "string"
        },
        {
          "indexed": true,
          "internalType": "address",
          "name": "to",
          "type": "address"
        },
        {
          "indexed": true,
          "internalType": "uint256",
          "name": "tokenId",
          "type": "uint256"
        },
        {
          "indexed": false,
          "internalType": "uint256[]",
          "name": "parentIds",
          "type": "uint256[]"
        }
      ],
      "name": "Breed",
      "type": "event"
    },
    {
      "anonymous": false,
      "inputs": [
        {
          "indexed": false,
          "internalType": "address",
          "name": "_oldSuperAdmin",
          "type": "address"
        },
        {
          "indexed": false,
          "internalType": "address",
          "name": "_newSuperAdmin",
          "type": "address"
        }
      ],
      "name": "SuperAdminChanged",
      "type": "event"
    },
    {
      "inputs": [],
      "name": "_revenueAddress1",
      "outputs": [
        {
          "internalType": "address",
          "name": "",
          "type": "address"
        }
      ],
      "stateMutability": "view",
      "type": "function",
      "constant": true
    },
    {
      "inputs": [],
      "name": "_revenueAddress2",
      "outputs": [
        {
          "internalType": "address",
          "name": "",
          "type": "address"
        }
      ],
      "stateMutability": "view",
      "type": "function",
      "constant": true
    },
    {
      "inputs": [],
      "name": "_revenueAddress3",
      "outputs": [
        {
          "internalType": "address",
          "name": "",
          "type": "address"
        }
      ],
      "stateMutability": "view",
      "type": "function",
      "constant": true
    },
    {
      "inputs": [],
      "name": "_revenueRate1",
      "outputs": [
        {
          "internalType": "uint256",
          "name": "",
          "type": "uint256"
        }
      ],
      "stateMutability": "view",
      "type": "function",
      "constant": true
    },
    {
      "inputs": [],
      "name": "_revenueRate2",
      "outputs": [
        {
          "internalType": "uint256",
          "name": "",
          "type": "uint256"
        }
      ],
      "stateMutability": "view",
      "type": "function",
      "constant": true
    },
    {
      "inputs": [],
      "name": "_revenueRate3",
      "outputs": [
        {
          "internalType": "uint256",
          "name": "",
          "type": "uint256"
        }
      ],
      "stateMutability": "view",
      "type": "function",
      "constant": true
    },
    {
      "inputs": [
        {
          "internalType": "address",
          "name": "_address",
          "type": "address"
        }
      ],
      "name": "addAdmin",
      "outputs": [],
      "stateMutability": "nonpayable",
      "type": "function"
    },
    {
      "inputs": [],
      "name": "binemonTokenAddress",
      "outputs": [
        {
          "internalType": "address",
          "name": "",
          "type": "address"
        }
      ],
      "stateMutability": "view",
      "type": "function",
      "constant": true
    },
    {
      "inputs": [],
      "name": "claimRevenue",
      "outputs": [],
      "stateMutability": "payable",
      "type": "function",
      "payable": true
    },
    {
      "inputs": [],
      "name": "eggPrice",
      "outputs": [
        {
          "internalType": "uint256",
          "name": "",
          "type": "uint256"
        }
      ],
      "stateMutability": "view",
      "type": "function",
      "constant": true
    },
    {
      "inputs": [
        {
          "internalType": "address",
          "name": "_address",
          "type": "address"
        }
      ],
      "name": "isAdmin",
      "outputs": [
        {
          "internalType": "bool",
          "name": "",
          "type": "bool"
        }
      ],
      "stateMutability": "view",
      "type": "function",
      "constant": true
    },
    {
      "inputs": [],
      "name": "remainEggs",
      "outputs": [
        {
          "internalType": "uint256",
          "name": "",
          "type": "uint256"
        }
      ],
      "stateMutability": "view",
      "type": "function",
      "constant": true
    },
    {
      "inputs": [
        {
          "internalType": "address",
          "name": "_address",
          "type": "address"
        }
      ],
      "name": "removeAdmin",
      "outputs": [],
      "stateMutability": "nonpayable",
      "type": "function"
    },
    {
      "inputs": [
        {
          "internalType": "address",
          "name": "address1",
          "type": "address"
        },
        {
          "internalType": "address",
          "name": "address2",
          "type": "address"
        },
        {
          "internalType": "address",
          "name": "address3",
          "type": "address"
        }
      ],
      "name": "setRevenueAddresses",
      "outputs": [],
      "stateMutability": "nonpayable",
      "type": "function"
    },
    {
      "inputs": [
        {
          "internalType": "uint256",
          "name": "rate1",
          "type": "uint256"
        },
        {
          "internalType": "uint256",
          "name": "rate2",
          "type": "uint256"
        },
        {
          "internalType": "uint256",
          "name": "rate3",
          "type": "uint256"
        }
      ],
      "name": "setRevenueRate",
      "outputs": [],
      "stateMutability": "nonpayable",
      "type": "function"
    },
    {
      "inputs": [],
      "name": "superAdmin",
      "outputs": [
        {
          "internalType": "address",
          "name": "",
          "type": "address"
        }
      ],
      "stateMutability": "view",
      "type": "function",
      "constant": true
    },
    {
      "inputs": [],
      "name": "totalEggSold",
      "outputs": [
        {
          "internalType": "uint256",
          "name": "",
          "type": "uint256"
        }
      ],
      "stateMutability": "view",
      "type": "function",
      "constant": true
    },
    {
      "inputs": [
        {
          "internalType": "address",
          "name": "_address",
          "type": "address"
        }
      ],
      "name": "updateSuperAdmin",
      "outputs": [],
      "stateMutability": "nonpayable",
      "type": "function"
    },
    {
      "inputs": [
        {
          "internalType": "uint256",
          "name": "qty",
          "type": "uint256"
        }
      ],
      "name": "addEggs",
      "outputs": [],
      "stateMutability": "nonpayable",
      "type": "function"
    },
    {
      "inputs": [
        {
          "internalType": "address",
          "name": "receiver",
          "type": "address"
        },
        {
          "internalType": "uint256",
          "name": "qty",
          "type": "uint256"
        }
      ],
      "name": "buyEggs",
      "outputs": [],
      "stateMutability": "payable",
      "type": "function",
      "payable": true
    },
    {
      "inputs": [
        {
          "components": [
            {
              "internalType": "string",
              "name": "_breedId",
              "type": "string"
            },
            {
              "internalType": "address",
              "name": "_tokenHolder",
              "type": "address"
            },
            {
              "internalType": "uint256[]",
              "name": "_parentIds",
              "type": "uint256[]"
            }
          ],
          "internalType": "struct BinemoStore.BreedBatchItem[]",
          "name": "items",
          "type": "tuple[]"
        }
      ],
      "name": "breedBatch",
      "outputs": [],
      "stateMutability": "nonpayable",
      "type": "function"
    },
    {
      "inputs": [
        {
          "internalType": "string",
          "name": "_breedId",
          "type": "string"
        },
        {
          "internalType": "address",
          "name": "_tokenHolder",
          "type": "address"
        },
        {
          "internalType": "uint256[]",
          "name": "_parentIds",
          "type": "uint256[]"
        }
      ],
      "name": "breed",
      "outputs": [],
      "stateMutability": "nonpayable",
      "type": "function"
    },
    {
      "inputs": [
        {
          "internalType": "uint256",
          "name": "newPrice",
          "type": "uint256"
        }
      ],
      "name": "setEggPrice",
      "outputs": [],
      "stateMutability": "nonpayable",
      "type": "function"
    },
    {
      "inputs": [
        {
          "internalType": "address",
          "name": "_binemonTokenAddress",
          "type": "address"
        }
      ],
      "name": "setBinemonTokenAddress",
      "outputs": [],
      "stateMutability": "nonpayable",
      "type": "function"
    }
  ],
  "bytecode": "0x608060405273b6707a7bb8e83739551ba67846dc8eb9386d6a666000806101000a81548173ffffffffffffffffffffffffffffffffffffffff021916908373ffffffffffffffffffffffffffffffffffffffff16021790555073b6707a7bb8e83739551ba67846dc8eb9386d6a66600160006101000a81548173ffffffffffffffffffffffffffffffffffffffff021916908373ffffffffffffffffffffffffffffffffffffffff16021790555073b6707a7bb8e83739551ba67846dc8eb9386d6a66600260006101000a81548173ffffffffffffffffffffffffffffffffffffffff021916908373ffffffffffffffffffffffffffffffffffffffff1602179055506103e86003556107d0600455611b58600555680ac9ae05a71ebc000060085562030d406009556000600a553480156200013a57600080fd5b5060405162002b6038038062002b6083398181016040528101906200016091906200048c565b817314b41103371d7990659ec430c2a6f31f61a18420600660006101000a81548173ffffffffffffffffffffffffffffffffffffffff021916908373ffffffffffffffffffffffffffffffffffffffff16021790555060008151905060005b8181101562000230576200021a83828151811062000206577f4e487b7100000000000000000000000000000000000000000000000000000000600052603260045260246000fd5b6020026020010151620002af60201b60201c565b808062000227906200062a565b915050620001bf565b5062000264600660009054906101000a900473ffffffffffffffffffffffffffffffffffffffff16620002af60201b60201c565b505080600b60006101000a81548173ffffffffffffffffffffffffffffffffffffffff021916908373ffffffffffffffffffffffffffffffffffffffff1602179055505050620006f0565b600760008273ffffffffffffffffffffffffffffffffffffffff1673ffffffffffffffffffffffffffffffffffffffff16815260200190815260200160002060009054906101000a900460ff16156200033f576040517f08c379a0000000000000000000000000000000000000000000000000000000008152600401620003369062000556565b60405180910390fd5b6001600760008373ffffffffffffffffffffffffffffffffffffffff1673ffffffffffffffffffffffffffffffffffffffff16815260200190815260200160002060006101000a81548160ff0219169083151502179055507f44d6d25963f097ad14f29f06854a01f575648a1ef82f30e562ccd3889717e33981604051620003c8919062000539565b60405180910390a150565b6000620003ea620003e484620005ac565b62000578565b905080838252602082019050828560208602820111156200040a57600080fd5b60005b858110156200043e578162000423888262000448565b8452602084019350602083019250506001810190506200040d565b5050509392505050565b6000815190506200045981620006d6565b92915050565b600082601f8301126200047157600080fd5b815162000483848260208601620003d3565b91505092915050565b60008060408385031215620004a057600080fd5b600083015167ffffffffffffffff811115620004bb57600080fd5b620004c9858286016200045f565b9250506020620004dc8582860162000448565b9150509250929050565b620004f181620005ec565b82525050565b600062000506601083620005db565b91507f69732061646d696e20616c7265616479000000000000000000000000000000006000830152602082019050919050565b6000602082019050620005506000830184620004e6565b92915050565b600060208201905081810360008301526200057181620004f7565b9050919050565b6000604051905081810181811067ffffffffffffffff82111715620005a257620005a1620006a7565b5b8060405250919050565b600067ffffffffffffffff821115620005ca57620005c9620006a7565b5b602082029050602081019050919050565b600082825260208201905092915050565b6000620005f98262000600565b9050919050565b600073ffffffffffffffffffffffffffffffffffffffff82169050919050565b6000819050919050565b6000620006378262000620565b91507fffffffffffffffffffffffffffffffffffffffffffffffffffffffffffffffff8214156200066d576200066c62000678565b5b600182019050919050565b7f4e487b7100000000000000000000000000000000000000000000000000000000600052601160045260246000fd5b7f4e487b7100000000000000000000000000000000000000000000000000000000600052604160045260246000fd5b620006e181620005ec565b8114620006ed57600080fd5b50565b61246080620007006000396000f3fe60806040526004361061014a5760003560e01c806370f80375116100b6578063d192e0691161006f578063d192e06914610427578063d1f9e22c14610450578063d644fda71461047b578063d705b46e146104a4578063d8b36487146104cf578063f2f587eb146104fa5761014a565b806370f8037514610331578063739328191461035a5780638638cf3a14610383578063a05c71d7146103ac578063c3179b91146103d5578063cae43fd8146103fe5761014a565b806340f4f4831161010857806340f4f48314610261578063450edf951461028c578063564f4f76146102a857806359c7750b146102b25780635ae853f6146102dd57806370480275146103085761014a565b806285c1331461014f57806314806b2d1461017a5780631785f53c146101a557806324d7806c146101ce57806329575f6a1461020b578063305e355214610236575b600080fd5b34801561015b57600080fd5b50610164610525565b604051610171919061204d565b60405180910390f35b34801561018657600080fd5b5061018f61052b565b60405161019c919061204d565b60405180910390f35b3480156101b157600080fd5b506101cc60048036038101906101c79190611a17565b610531565b005b3480156101da57600080fd5b506101f560048036038101906101f09190611a17565b6105cf565b6040516102029190611f1b565b60405180910390f35b34801561021757600080fd5b50610220610625565b60405161022d9190611ed7565b60405180910390f35b34801561024257600080fd5b5061024b61064f565b604051610258919061204d565b60405180910390f35b34801561026d57600080fd5b50610276610655565b604051610283919061204d565b60405180910390f35b6102a660048036038101906102a19190611a8f565b61065b565b005b6102b0610838565b005b3480156102be57600080fd5b506102c76108d0565b6040516102d49190611ed7565b60405180910390f35b3480156102e957600080fd5b506102f26108f6565b6040516102ff9190611ed7565b60405180910390f35b34801561031457600080fd5b5061032f600480360381019061032a9190611a17565b61091c565b005b34801561033d57600080fd5b5061035860048036038101906103539190611b8b565b6109ba565b005b34801561036657600080fd5b50610381600480360381019061037c9190611bdd565b610a52565b005b34801561038f57600080fd5b506103aa60048036038101906103a59190611acb565b610afa565b005b3480156103b857600080fd5b506103d360048036038101906103ce9190611a17565b610c82565b005b3480156103e157600080fd5b506103fc60048036038101906103f79190611b8b565b610d54565b005b34801561040a57600080fd5b5061042560048036038101906104209190611a17565b610df9565b005b34801561043357600080fd5b5061044e60048036038101906104499190611b0c565b610fbb565b005b34801561045c57600080fd5b5061046561123e565b6040516104729190611ed7565b60405180910390f35b34801561048757600080fd5b506104a2600480360381019061049d9190611a40565b611264565b005b3480156104b057600080fd5b506104b96113b9565b6040516104c6919061204d565b60405180910390f35b3480156104db57600080fd5b506104e46113bf565b6040516104f1919061204d565b60405180910390f35b34801561050657600080fd5b5061050f6113c5565b60405161051c9190611ed7565b60405180910390f35b60045481565b600a5481565b33600660009054906101000a900473ffffffffffffffffffffffffffffffffffffffff1673ffffffffffffffffffffffffffffffffffffffff168173ffffffffffffffffffffffffffffffffffffffff16146105c2576040517f08c379a00000000000000000000000000000000000000000000000000000000081526004016105b99061200d565b60405180910390fd5b6105cb826113e9565b5050565b6000600760008373ffffffffffffffffffffffffffffffffffffffff1673ffffffffffffffffffffffffffffffffffffffff16815260200190815260200160002060009054906101000a900460ff169050919050565b6000600660009054906101000a900473ffffffffffffffffffffffffffffffffffffffff16905090565b60085481565b60055481565b60006008548261066b91906121fd565b9050803410156106b0576040517f08c379a00000000000000000000000000000000000000000000000000000000081526004016106a79061202d565b60405180910390fd5b8160095410156106f5576040517f08c379a00000000000000000000000000000000000000000000000000000000081526004016106ec90611fad565b60405180910390fd5b816009546107039190612257565b60098190555081600a546107179190612176565b600a819055506000813461072b9190612257565b9050600081111561077e573373ffffffffffffffffffffffffffffffffffffffff166108fc829081150290604051600060405180830381858888f1935050505015801561077c573d6000803e3d6000fd5b505b60005b8381101561082957600b60009054906101000a900473ffffffffffffffffffffffffffffffffffffffff1673ffffffffffffffffffffffffffffffffffffffff16636a627842866040518263ffffffff1660e01b81526004016107e49190611ed7565b600060405180830381600087803b1580156107fe57600080fd5b505af1158015610812573d6000803e3d6000fd5b50505050808061082190612315565b915050610781565b50610832611507565b50505050565b33600760008273ffffffffffffffffffffffffffffffffffffffff1673ffffffffffffffffffffffffffffffffffffffff16815260200190815260200160002060009054906101000a900460ff166108c5576040517f08c379a00000000000000000000000000000000000000000000000000000000081526004016108bc90611fcd565b60405180910390fd5b6108cd611507565b50565b600b60009054906101000a900473ffffffffffffffffffffffffffffffffffffffff1681565b600160009054906101000a900473ffffffffffffffffffffffffffffffffffffffff1681565b33600660009054906101000a900473ffffffffffffffffffffffffffffffffffffffff1673ffffffffffffffffffffffffffffffffffffffff168173ffffffffffffffffffffffffffffffffffffffff16146109ad576040517f08c379a00000000000000000000000000000000000000000000000000000000081526004016109a49061200d565b60405180910390fd5b6109b6826116a4565b5050565b33600760008273ffffffffffffffffffffffffffffffffffffffff1673ffffffffffffffffffffffffffffffffffffffff16815260200190815260200160002060009054906101000a900460ff16610a47576040517f08c379a0000000000000000000000000000000000000000000000000000000008152600401610a3e90611fcd565b60405180910390fd5b816008819055505050565b33600760008273ffffffffffffffffffffffffffffffffffffffff1673ffffffffffffffffffffffffffffffffffffffff16815260200190815260200160002060009054906101000a900460ff16610adf576040517f08c379a0000000000000000000000000000000000000000000000000000000008152600401610ad690611fcd565b60405180910390fd5b83600381905550826004819055508160058190555050505050565b33600760008273ffffffffffffffffffffffffffffffffffffffff1673ffffffffffffffffffffffffffffffffffffffff16815260200190815260200160002060009054906101000a900460ff16610b87576040517f08c379a0000000000000000000000000000000000000000000000000000000008152600401610b7e90611fcd565b60405180910390fd5b60005b8251811015610c7d57610c6a838281518110610bcf577f4e487b7100000000000000000000000000000000000000000000000000000000600052603260045260246000fd5b602002602001015160000151848381518110610c14577f4e487b7100000000000000000000000000000000000000000000000000000000600052603260045260246000fd5b602002602001015160200151858481518110610c59577f4e487b7100000000000000000000000000000000000000000000000000000000600052603260045260246000fd5b602002602001015160400151610fbb565b8080610c7590612315565b915050610b8a565b505050565b33600760008273ffffffffffffffffffffffffffffffffffffffff1673ffffffffffffffffffffffffffffffffffffffff16815260200190815260200160002060009054906101000a900460ff16610d0f576040517f08c379a0000000000000000000000000000000000000000000000000000000008152600401610d0690611fcd565b60405180910390fd5b81600b60006101000a81548173ffffffffffffffffffffffffffffffffffffffff021916908373ffffffffffffffffffffffffffffffffffffffff1602179055505050565b33600760008273ffffffffffffffffffffffffffffffffffffffff1673ffffffffffffffffffffffffffffffffffffffff16815260200190815260200160002060009054906101000a900460ff16610de1576040517f08c379a0000000000000000000000000000000000000000000000000000000008152600401610dd890611fcd565b60405180910390fd5b81600954610def9190612176565b6009819055505050565b33600660009054906101000a900473ffffffffffffffffffffffffffffffffffffffff1673ffffffffffffffffffffffffffffffffffffffff168173ffffffffffffffffffffffffffffffffffffffff1614610e8a576040517f08c379a0000000000000000000000000000000000000000000000000000000008152600401610e819061200d565b60405180910390fd5b600660009054906101000a900473ffffffffffffffffffffffffffffffffffffffff1673ffffffffffffffffffffffffffffffffffffffff168273ffffffffffffffffffffffffffffffffffffffff161415610f1b576040517f08c379a0000000000000000000000000000000000000000000000000000000008152600401610f1290611fed565b60405180910390fd5b7f6a7fb6694616d75391385b86c21a1cc2628072753f9c7da9731e7b1b083a55e4600660009054906101000a900473ffffffffffffffffffffffffffffffffffffffff1683604051610f6e929190611ef2565b60405180910390a181600660006101000a81548173ffffffffffffffffffffffffffffffffffffffff021916908373ffffffffffffffffffffffffffffffffffffffff1602179055505050565b33600760008273ffffffffffffffffffffffffffffffffffffffff1673ffffffffffffffffffffffffffffffffffffffff16815260200190815260200160002060009054906101000a900460ff16611048576040517f08c379a000000000000000000000000000000000000000000000000000000000815260040161103f90611fcd565b60405180910390fd5b6000600b60009054906101000a900473ffffffffffffffffffffffffffffffffffffffff1673ffffffffffffffffffffffffffffffffffffffff16637b7c4f97856040518263ffffffff1660e01b81526004016110a59190611ed7565b602060405180830381600087803b1580156110bf57600080fd5b505af11580156110d3573d6000803e3d6000fd5b505050506040513d601f19601f820116820180604052508101906110f79190611bb4565b905060005b83518110156111e557600b60009054906101000a900473ffffffffffffffffffffffffffffffffffffffff1673ffffffffffffffffffffffffffffffffffffffff16636a9f760285838151811061117c577f4e487b7100000000000000000000000000000000000000000000000000000000600052603260045260246000fd5b60200260200101516040518263ffffffff1660e01b81526004016111a0919061204d565b600060405180830381600087803b1580156111ba57600080fd5b505af11580156111ce573d6000803e3d6000fd5b5050505080806111dd90612315565b9150506110fc565b50808473ffffffffffffffffffffffffffffffffffffffff167f272bc86e38dc93fcce46f12b71cd6e1aa0d7f97c34cc943a96d409469502ca76878660405161122f929190611f36565b60405180910390a35050505050565b600260009054906101000a900473ffffffffffffffffffffffffffffffffffffffff1681565b33600760008273ffffffffffffffffffffffffffffffffffffffff1673ffffffffffffffffffffffffffffffffffffffff16815260200190815260200160002060009054906101000a900460ff166112f1576040517f08c379a00000000000000000000000000000000000000000000000000000000081526004016112e890611fcd565b60405180910390fd5b836000806101000a81548173ffffffffffffffffffffffffffffffffffffffff021916908373ffffffffffffffffffffffffffffffffffffffff16021790555082600160006101000a81548173ffffffffffffffffffffffffffffffffffffffff021916908373ffffffffffffffffffffffffffffffffffffffff16021790555081600260006101000a81548173ffffffffffffffffffffffffffffffffffffffff021916908373ffffffffffffffffffffffffffffffffffffffff16021790555050505050565b60095481565b60035481565b60008054906101000a900473ffffffffffffffffffffffffffffffffffffffff1681565b600760008273ffffffffffffffffffffffffffffffffffffffff1673ffffffffffffffffffffffffffffffffffffffff16815260200190815260200160002060009054906101000a900460ff16611475576040517f08c379a000000000000000000000000000000000000000000000000000000000815260040161146c90611f6d565b60405180910390fd5b6000600760008373ffffffffffffffffffffffffffffffffffffffff1673ffffffffffffffffffffffffffffffffffffffff16815260200190815260200160002060006101000a81548160ff0219169083151502179055507fa3b62bc36326052d97ea62d63c3d60308ed4c3ea8ac079dd8499f1e9c4f80c0f816040516114fc9190611ed7565b60405180910390a150565b600047905060006127106003548361151f91906121fd565b61152991906121cc565b905060006127106004548461153e91906121fd565b61154891906121cc565b9050600081836115589190612176565b846115639190612257565b905060008054906101000a900473ffffffffffffffffffffffffffffffffffffffff1673ffffffffffffffffffffffffffffffffffffffff166108fc849081150290604051600060405180830381858888f193505050501580156115cb573d6000803e3d6000fd5b50600160009054906101000a900473ffffffffffffffffffffffffffffffffffffffff1673ffffffffffffffffffffffffffffffffffffffff166108fc839081150290604051600060405180830381858888f19350505050158015611634573d6000803e3d6000fd5b50600260009054906101000a900473ffffffffffffffffffffffffffffffffffffffff1673ffffffffffffffffffffffffffffffffffffffff166108fc829081150290604051600060405180830381858888f1935050505015801561169d573d6000803e3d6000fd5b5050505050565b600760008273ffffffffffffffffffffffffffffffffffffffff1673ffffffffffffffffffffffffffffffffffffffff16815260200190815260200160002060009054906101000a900460ff1615611731576040517f08c379a000000000000000000000000000000000000000000000000000000000815260040161172890611f8d565b60405180910390fd5b6001600760008373ffffffffffffffffffffffffffffffffffffffff1673ffffffffffffffffffffffffffffffffffffffff16815260200190815260200160002060006101000a81548160ff0219169083151502179055507f44d6d25963f097ad14f29f06854a01f575648a1ef82f30e562ccd3889717e339816040516117b89190611ed7565b60405180910390a150565b60006117d66117d184612099565b612068565b9050808382526020820190508260005b8581101561181657813585016117fc888261195d565b8452602084019350602083019250506001810190506117e6565b5050509392505050565b600061183361182e846120c5565b612068565b9050808382526020820190508285602086028201111561185257600080fd5b60005b85811015611882578161186888826119ed565b845260208401935060208301925050600181019050611855565b5050509392505050565b600061189f61189a846120f1565b612068565b9050828152602081018484840111156118b757600080fd5b6118c28482856122d3565b509392505050565b6000813590506118d9816123fc565b92915050565b600082601f8301126118f057600080fd5b81356119008482602086016117c3565b91505092915050565b600082601f83011261191a57600080fd5b813561192a848260208601611820565b91505092915050565b600082601f83011261194457600080fd5b813561195484826020860161188c565b91505092915050565b60006060828403121561196f57600080fd5b6119796060612068565b9050600082013567ffffffffffffffff81111561199557600080fd5b6119a184828501611933565b60008301525060206119b5848285016118ca565b602083015250604082013567ffffffffffffffff8111156119d557600080fd5b6119e184828501611909565b60408301525092915050565b6000813590506119fc81612413565b92915050565b600081519050611a1181612413565b92915050565b600060208284031215611a2957600080fd5b6000611a37848285016118ca565b91505092915050565b600080600060608486031215611a5557600080fd5b6000611a63868287016118ca565b9350506020611a74868287016118ca565b9250506040611a85868287016118ca565b9150509250925092565b60008060408385031215611aa257600080fd5b6000611ab0858286016118ca565b9250506020611ac1858286016119ed565b9150509250929050565b600060208284031215611add57600080fd5b600082013567ffffffffffffffff811115611af757600080fd5b611b03848285016118df565b91505092915050565b600080600060608486031215611b2157600080fd5b600084013567ffffffffffffffff811115611b3b57600080fd5b611b4786828701611933565b9350506020611b58868287016118ca565b925050604084013567ffffffffffffffff811115611b7557600080fd5b611b8186828701611909565b9150509250925092565b600060208284031215611b9d57600080fd5b6000611bab848285016119ed565b91505092915050565b600060208284031215611bc657600080fd5b6000611bd484828501611a02565b91505092915050565b600080600060608486031215611bf257600080fd5b6000611c00868287016119ed565b9350506020611c11868287016119ed565b9250506040611c22868287016119ed565b9150509250925092565b6000611c388383611eb9565b60208301905092915050565b611c4d8161228b565b82525050565b6000611c5e82612131565b611c688185612154565b9350611c7383612121565b8060005b83811015611ca4578151611c8b8882611c2c565b9750611c9683612147565b925050600181019050611c77565b5085935050505092915050565b611cba8161229d565b82525050565b6000611ccb8261213c565b611cd58185612165565b9350611ce58185602086016122e2565b611cee816123eb565b840191505092915050565b6000611d06600c83612165565b91507f6973206e6f742061646d696e00000000000000000000000000000000000000006000830152602082019050919050565b6000611d46601083612165565b91507f69732061646d696e20616c7265616479000000000000000000000000000000006000830152602082019050919050565b6000611d86600f83612165565b91507f6e6f7420656e6f756768206567677300000000000000000000000000000000006000830152602082019050919050565b6000611dc6600d83612165565b91507f6973206e6f742061646d696e21000000000000000000000000000000000000006000830152602082019050919050565b6000611e06601283612165565b91507f616c726561647920737570657241646d696e00000000000000000000000000006000830152602082019050919050565b6000611e46601383612165565b91507f6973206e6f742073757065722061646d696e21000000000000000000000000006000830152602082019050919050565b6000611e86601083612165565b91507f6e6f7420656e6f7567682076616c7565000000000000000000000000000000006000830152602082019050919050565b611ec2816122c9565b82525050565b611ed1816122c9565b82525050565b6000602082019050611eec6000830184611c44565b92915050565b6000604082019050611f076000830185611c44565b611f146020830184611c44565b9392505050565b6000602082019050611f306000830184611cb1565b92915050565b60006040820190508181036000830152611f508185611cc0565b90508181036020830152611f648184611c53565b90509392505050565b60006020820190508181036000830152611f8681611cf9565b9050919050565b60006020820190508181036000830152611fa681611d39565b9050919050565b60006020820190508181036000830152611fc681611d79565b9050919050565b60006020820190508181036000830152611fe681611db9565b9050919050565b6000602082019050818103600083015261200681611df9565b9050919050565b6000602082019050818103600083015261202681611e39565b9050919050565b6000602082019050818103600083015261204681611e79565b9050919050565b60006020820190506120626000830184611ec8565b92915050565b6000604051905081810181811067ffffffffffffffff8211171561208f5761208e6123bc565b5b8060405250919050565b600067ffffffffffffffff8211156120b4576120b36123bc565b5b602082029050602081019050919050565b600067ffffffffffffffff8211156120e0576120df6123bc565b5b602082029050602081019050919050565b600067ffffffffffffffff82111561210c5761210b6123bc565b5b601f19601f8301169050602081019050919050565b6000819050602082019050919050565b600081519050919050565b600081519050919050565b6000602082019050919050565b600082825260208201905092915050565b600082825260208201905092915050565b6000612181826122c9565b915061218c836122c9565b9250827fffffffffffffffffffffffffffffffffffffffffffffffffffffffffffffffff038211156121c1576121c061235e565b5b828201905092915050565b60006121d7826122c9565b91506121e2836122c9565b9250826121f2576121f161238d565b5b828204905092915050565b6000612208826122c9565b9150612213836122c9565b9250817fffffffffffffffffffffffffffffffffffffffffffffffffffffffffffffffff048311821515161561224c5761224b61235e565b5b828202905092915050565b6000612262826122c9565b915061226d836122c9565b9250828210156122805761227f61235e565b5b828203905092915050565b6000612296826122a9565b9050919050565b60008115159050919050565b600073ffffffffffffffffffffffffffffffffffffffff82169050919050565b6000819050919050565b82818337600083830152505050565b60005b838110156123005780820151818401526020810190506122e5565b8381111561230f576000848401525b50505050565b6000612320826122c9565b91507fffffffffffffffffffffffffffffffffffffffffffffffffffffffffffffffff8214156123535761235261235e565b5b600182019050919050565b7f4e487b7100000000000000000000000000000000000000000000000000000000600052601160045260246000fd5b7f4e487b7100000000000000000000000000000000000000000000000000000000600052601260045260246000fd5b7f4e487b7100000000000000000000000000000000000000000000000000000000600052604160045260246000fd5b6000601f19601f8301169050919050565b6124058161228b565b811461241057600080fd5b50565b61241c816122c9565b811461242757600080fd5b5056fea26469706673582212206bd94f63e58e32129dfa96c9a82a6e466244ab30d5b4cbbc07a4232fe00f6ee664736f6c63430008000033",
  "immutableReferences": {},
  "source": "pragma solidity ^0.8.0;\nimport \"./Admin.sol\";\nimport \"./utils/math/SafeMath.sol\";\n\ninterface BinemonTokenI {\n    function mint(address _tokenHolder) external;\n\n    function mintWithoutEvent(address _tokenHolder) external returns (uint256);\n\n    function forcedBurn(uint256 tokenId) external;\n}\n\ncontract BinemoStore is Admin {\n    uint256 public eggPrice = 199 ether;\n    uint256 public remainEggs = 200000;\n    uint256 public totalEggSold = 0;\n\n    address public binemonTokenAddress;\n\n    event Breed(\n        string breedId,\n        address indexed to,\n        uint256 indexed tokenId,\n        uint256[] parentIds\n    );\n\n    struct BreedBatchItem {\n        string _breedId;\n        address _tokenHolder;\n        uint256[] _parentIds;\n    }\n\n    constructor(address[] memory _initAdmins, address _binemonTokenAddress)\n        public\n        Admin(_initAdmins)\n    {\n        binemonTokenAddress = _binemonTokenAddress;\n    }\n\n    function addEggs(uint256 qty) public onlyAdmin(msg.sender) {\n        remainEggs = remainEggs + qty;\n    }\n\n    function buyEggs(address receiver, uint256 qty) public payable {\n        uint256 price = qty * eggPrice;\n        require(msg.value >= price, \"not enough value\");\n        require(remainEggs >= qty, \"not enough eggs\");\n\n        remainEggs = remainEggs - qty;\n        totalEggSold = totalEggSold + qty;\n\n        uint256 payback = uint256(msg.value) - price;\n        if (payback > 0) {\n            payable(msg.sender).transfer(payback);\n        }\n\n        for (uint256 i = 0; i < qty; i++) {\n            BinemonTokenI(binemonTokenAddress).mint(receiver);\n        }\n        _claimRevenue();\n    }\n\n    function breedBatch(BreedBatchItem[] memory items)\n        public\n        onlyAdmin(msg.sender)\n    {\n        for (uint256 i = 0; i < items.length; i++) {\n            breed(\n                items[i]._breedId,\n                items[i]._tokenHolder,\n                items[i]._parentIds\n            );\n        }\n    }\n\n    function breed(\n        string memory _breedId,\n        address _tokenHolder,\n        uint256[] memory _parentIds\n    ) public onlyAdmin(msg.sender) {\n        uint256 _tokenId =\n            BinemonTokenI(binemonTokenAddress).mintWithoutEvent(_tokenHolder);\n\n        for (uint256 i = 0; i < _parentIds.length; i++) {\n            BinemonTokenI(binemonTokenAddress).forcedBurn(_parentIds[i]);\n        }\n\n        emit Breed(_breedId, _tokenHolder, _tokenId, _parentIds);\n    }\n\n    function setEggPrice(uint256 newPrice) public onlyAdmin(msg.sender) {\n        eggPrice = newPrice;\n    }\n\n    function setBinemonTokenAddress(address _binemonTokenAddress)\n        public\n        onlyAdmin(msg.sender)\n    {\n        binemonTokenAddress = _binemonTokenAddress;\n    }\n}\n",
  "sourcePath": "/Users/tybq/working/learn/binemo-nft/contracts/BinemoStore.sol",
  "compiler": {
    "name": "solc",
    "version": "0.8.0+commit.c7dfd78e.Emscripten.clang"
  },
  "schemaVersion": "3.4.1",
  "updatedAt": "2021-07-05T14:14:36.074Z",
  "networkType": "ethereum",
  "devdoc": {
    "kind": "dev",
    "methods": {},
    "version": 1
  },
  "userdoc": {
    "kind": "user",
    "methods": {},
    "version": 1
  }
}